:020000040800F2
:1000000054EB0020B1E000080DE100080DE100080C
:100010000DE100080DE100080DE1000800000000FE
:100020000000000000000000000000000DE10008DA
:100030000DE10008000000000DE100080DE10008DE
:100040000DE100080DE100080DE10008F18E000847
:100050000DE100080DE100080DE100080DE10008C8
:100060000DE100080DE100080DE100080DE10008B8
:100070000DE100080DE100080DE100080DE10008A8
:100080000DE100080DE100080DE100080DE1000898
:100090000DE100080DE100080DE1000845BC000875
:1000A0000DE100080DE100080DE100080DE1000878
:1000B000018E0008698F00080DE100080DE10008BD
:1000C0000DE100080DE100080DE100080DE1000858
:1000D0000DE1000889D900080DE100080DE10008D4
:1000E0000DE100080DE100080DE10008000000002E
:1000F0000000000000000000000000000000000000
:1001000000000000000000000DE100080DE1000803
:1001100085E400080DE100080DE100080DE100088C
:100120000DE100080DE100080DE100080DE10008F7
:100130000DE100080DE100080DE100080DE10008E7
:100140000DE100080DE100080DE100080DE10008D7
:100150005FF808F141B14FF42053C4F200031A884C
:1001600092B21043188070474FF42053C4F200033A
:100170001A8892B222EA0000188070474FF4205388
:10018000C4F200039A8892B242F010029A8070473B
:100190004FF42052C4F20002938823F010034FEA78
:1001A00003434FEA13439380704700BF4FF420533B
:1001B000C4F20003988B80B21B8B40EA0340704767
:1001C00010B50446FFF7DAFF4FEA14424FF420530C
:1001D000C4F200031A83A4B29C83FFF7D9FF10BDB9
:1001E00010B50446FFF7CAFFC4F303424FF420538F
:1001F000C4F200031A81A4B29C81FFF7C9FF10BDAD
:100200004FF42052C4F20002938813F0200FFBD069
:10021000704700BF4FF42052C4F20002938823F0CD
:1002200008034FEA03434FEA134393804FF42052ED
:10023000C4F20002938813F0080FFBD0704700BF90
:100240004FF42053C4F200039A8892B21B881842DC
:1002500006D0024012F0FF0F0CBF002001207047B3
:100260004FF00000704700BF4FF42053C4F200036A
:100270009A8892B222EA0000988070478378A3F1AE
:100280000302D2B2072A11D80279C178891A182933
:1002900008DD12B94279012A04D9B3F10A0018BF66
:1002A00001207047D81E18BF012070474FF0000092
:1002B000704700BF70B448F68902C8F68802A2FBF6
:1002C00000434FEA5313C3EB0314A0EB8400C8713F
:1002D000A2FB03024FEA5212C2EB0210A3EB80030F
:1002E0008B714AF6AB23CAF6AA23A3FB02434FEA5B
:1002F000131303EB4300A2EBC0024A719BB203F15C
:10030000060242F29340C9F2492080FB0240801865
:100310004FEAA000C0EBC000121A0A714FF00104AE
:100320004FF0000240F26D154FF4B77612F0030F54
:100330000DD11AB1642A01D0C82A0AD104F1FF34C0
:10034000E4B2002C14BF28464FF4B77002E02846F0
:1003500000E03046834205D31B1A9BB202F1010232
:10036000D2B2E3E71C4602F5FA620A8010F0010FF0
:1003700003D03A2B84BF01339BB21E2B12D94FF00E
:100380001F004FF001024FF65C14C0F600041B1A68
:100390009BB202F10102D2B2A01810F8010C9842EF
:1003A000F5D901E04FF001028A7003F10103CB702F
:1003B00070BC70472DE9F0410446FFF7F7FE054693
:1003C000FFF7F4FE8542F8D128462146FFF772FF79
:1003D00094F80580E6782579A7782046FFF74EFF48
:1003E00030B34FF00103237298445FFA88F8B8F1F4
:1003F000180F17D1ED18EDB2072D08BF00254FF6E5
:100400005C13C0F60003DB1913F8013CB34204D1BE
:1004100007F10107FFB24FF0000606F10106F6B240
:100420004FF00008A77084F80580E670257102E09F
:100430004FF0000323724FF00000BDE8F08100BFD1
:10044000F0B585B0068840F26D1303FB06F39EB14C
:1004500006F1FF3206F1030548F21F51C5F2EB1118
:1004600081FB02414FEAE272C2EBE11404EBA50406
:10047000E318C2EB61129B1A4DF68B22CFF6F47291
:100480009A18877807F1FF34A4B264B14FF00003E3
:100490004FF65C15C0F60005E95C521803F1010344
:1004A000DBB29C42F8D848F21F53C5F2EB13A3FB12
:1004B00006134FEAD3134FF4C87101FB13639BB2C9
:1004C000A3B116F0030F0DD148F21F53C5F2EB1381
:1004D000A3FB06434FEA53134FF0640101FB13667D
:1004E000B6B21EB9012F88BF02F1FF32C379A3F55E
:1004F000A833A3F5C07341794FF4616404FB013163
:100500008379C3EB031301EB8301C47814194FF40F
:10051000A343C0F2010303FB0414204601A9FFF723
:10052000C9FE01A8FFF7AAFE08B1A4F561644FF067
:10053000010000F0C7F8FFF763FE2046FFF740FE1A
:10054000FFF75EFE4FF0000000F0BCF805B0F0BD14
:1005500082B04FF48053C4F202031A6842F00102E1
:100560001A6059684FF00002CFF2FF020A405A6049
:100570001A6822F0847222F480321A601A6822F417
:1005800080221A605A6822F4FE025A601A6822F029
:10059000A0521A604FF47F029A604FF00002DA62B4
:1005A000009201921A6842F480321A604FF480522D
:1005B000C4F20202136803F400330193009B03F1B9
:1005C00001030093019B1BB9009BB3F5A06FF1D110
:1005D0004FF48053C4F202031B6813F4003F14BFAE
:1005E000012300230193019B012B61D14FF40053A0
:1005F000C4F202031A6842F010021A601A6822F06C
:1006000003021A601A6842F002021A604FF4805323
:10061000C4F202035A685A605A685A605A6842F42F
:1006200080625A60D96A4FF47042CFF6FE720A4077
:10063000DA62DA6A42F4823242F41172DA621A68D9
:1006400042F080621A604FF48052C4F202021368D2
:1006500013F0006FFBD04FF48053C4F202035A68CA
:1006600022F47C125A605A6842F4E8125A601A68FE
:1006700042F080721A604FF48052C4F20202136892
:1006800013F0007FFBD04FF48053C4F202035A688A
:1006900022F003025A605A6842F002025A604FF494
:1006A0008052C4F20202536803F00C03082BFAD103
:1006B0004FF46D43CEF200034FF000629A6002B037
:1006C000704700BF4FF02003C4F20E23186070473C
:1006D0002DE9F003CB7803F00F0513F0100F1CBFCA
:1006E0008B781D430B782BB3D0F800C04FF000037C
:1006F0004FF001064FF00F0806FA03F20C88144081
:10070000944211D14FEA830708FA07F92CEA090C41
:1007100005FA07F74CEA070CCF78282F01D144617E
:1007200002E0482F08BF026103F10103082BE3D167
:10073000C0F800C00B88FF2B27D9D0F804C04FF0B9
:1007400000034FF001064FF00F0803F1080206FA0C
:1007500002F20C881440944211D14FEA830708FA40
:1007600007F92CEA090C05FA07F74CEA070CCF78D1
:10077000282F08BF4461CC78482C08BF026103F1E0
:100780000103082BE1D1C0F804C0BDE8F0037047B5
:100790004FF6FF7303804FF0020383704FF00403A2
:1007A000C3707047806880B2704700BFC06880B275
:1007B000704700BF0AB1016170474161704700BFD7
:1007C000C160704730B400284FF00003C4F2010349
:1007D000B4BFDB695B6884B200F44012B2F5401F1D
:1007E0000AD123F070634FF00002C4F20102556891
:1007F00025F07065556017E010F4801F0AD0C0F333
:1008000003424FF0030505FA02F223EA020343F024
:10081000706309E04FEA50524FEA021204FA02F202
:1008200023EA020343F0706331B14FEA50524FEABA
:10083000021204FA02F4234300284FF00002C4F22B
:100840000102B4BFD361536030BC704730B401F0D3
:1008500003024FEA82024FEA91014FF00003C4F213
:10086000010301F1020153F821504FF00F0404FA83
:1008700002F425EA040443F8214053F8214000FA29
:1008800002F2224343F8212030BC704770B584B097
:100890004FF009004FF001010DF0C6FB4FF4007658
:1008A000ADF80C604FF004038DF80F304FF00303E8
:1008B0008DF80E304FF44064C4F20104204603A9C1
:1008C000FFF706FF4FF48073ADF80C304FF01403C0
:1008D0008DF80F30204603A9FFF7FAFE4FF470633E
:1008E000ADF80C304FF40060C4F2010003A9FFF72B
:1008F000EFFE4FF4E0600EF0C5FD4FF017038DF8EA
:1009000000304FF000058DF801508DF802504FF087
:1009100001048DF8034068460EF0BEFD20464FF0FE
:100920000901FFF793FF01968DF808504FF0080377
:100930008DF809308DF80A4001A80DF0E9FB04B0EC
:1009400070BD00BF38B54BF66054C2F200042B4DA9
:10095000256040F2BF23A3800EF0F0FF05F5686329
:1009600003F10903C4F80930E3684FF4FA6262F353
:100970001723E3600EF0E2FF05F5125303F11903AC
:10098000C4F812304FF48D73E38205F5E25303F19E
:100990001903C4F81B306FF03F03E3774FF00103F6
:1009A00084F8203005F5F05303F1190363624FF426
:1009B000D063238505F5307303F10503C4F82D30AA
:1009C000236B4FF4346262F31723236305F56063EE
:1009D00003F10503C4F836304FF08403638705F54F
:1009E000B25505F11905C4F83F504FF0000384F8E3
:1009F00043304FF0060384F8443038BD565D002084
:100A0000F8B54BF64C74C2F200043E4D256041F23D
:100A10002C37A78005F55C5606F15C06C4F8066025
:100A200040F2CA23638105F58A4303F1EA03E360D8
:100A30004FF4FA63238205F5B64303F1FA03C4F8D1
:100A400012304FF48D73E38205F5A64303F1BA0328
:100A5000A3614FF4E073A38305F5AA4303F17A037E
:100A6000C4F81E304FF4D063638405F5685303F176
:100A70002603636240F6C432228505F58A4303F1FA
:100A80006603C4F82A30E28505F59A4303F1BA03F8
:100A900023634FF4C063A3860EF050FF05F50C43AB
:100AA00003F5BD73C4F836304FF4FB636387E56329
:100AB000A4F8407005F5BA4505F11405C4F8425094
:100AC00043F26603A4F8463042F2F455C2F2000540
:100AD00005F55C544FF0140333704FF01E0384F897
:100AE0005E304FF0180384F85F300EF027FF05F5F5
:100AF0006855EB7D84F860304FF0450384F8613031
:100B0000F8BD00BFF525002008B529B14FF000035E
:100B100000F8013B0139FBD10EF010FF08BD00BF0A
:100B2000F0B40346D9B14FF0000422464FF4887068
:100B300043F2C155C8F20E154FF6E8561C5D001978
:100B400080B2A5FB00744FEAD43406FB140080B2D7
:100B500002F1010292B214468A42EFD301E04FF44F
:100B60008870F0BC704700BF002801DD002904DC5C
:100B7000002805DA4FEAD17070474FF00100704746
:100B80004FF00000704700BF10B442F2AC52C2F206
:100B9000000240F25A2101FB00F142F2F453C2F28A
:100BA0000003CC1804F1490414604BF6BC52C2F2A5
:100BB000000240F2066404FB003404F5BA4404F178
:100BC000150414604BF6E872C2F200024FF05604AE
:100BD00004FB003404F55C5404F1620414604BF629
:100BE000AC52C2F20002C91801F5107101F10701FF
:100BF000116042F27852C2F2000200EB400103EBB6
:100C0000811101F59A4101F1BB0111604BF6E472CB
:100C1000C2F200024FF0D00101FB003101F5AA4100
:100C200001F17B0111604BF6E052C2F20002C0EB11
:100C3000001448F67B51591801EB0411116042F27F
:100C40009C52C2F20002C0EBC00003F5A64303F1C0
:100C5000BB0303EBC003136010BC7047F0B583B057
:100C60004FF0000742F2F456C2F20006F8B2FFF766
:100C70008BFF4FF000044FF0680505FB07F52B19BB
:100C800003F52A5303F1720306EB4303B3F807009D
:100C90000DF107010EF050F868B142F2AC53C2F208
:100CA00000031B684FF0010202FA04F2B3F95C1072
:100CB0000A43A3F85C2004F10104072CDFD107F1FB
:100CC0000107082FD2D103B0F0BD00BF2DE9F843D2
:100CD00004460EF033FE4BF6E753C2F200034FF02A
:100CE00064021A704BF65453C2F200034FF0000234
:100CF0001A70022C04D9CF4841F22C31FFF704FFBF
:100D0000CD4C204641F63661FFF7FEFE0EF016FE92
:100D100004F5B25000F11E004FF47F51FFF7F4FECE
:100D200004F5BA4000F1F6004FF4FB71FFF7ECFE5A
:100D30000EF004FE42F2F452C2F200024FF0010142
:100D400082F84710536C40F2011060F3172353648C
:100D50004FF000036FF01F0082F8430082F8441048
:100D6000517841F0200151704BF6D872C2F2000266
:100D7000137053709370D370137153719371D37157
:100D80001372537293724BF6D172C2F20002137057
:100D90004BF6B052C2F20002137042F2F454C2F2A7
:100DA000000440F20000C2F2000003F5365202F1E6
:100DB0007C0203EB4301415A04EB4202A2F8031008
:100DC00003F10103792BF0D142F28253C2F2000306
:100DD0004FF079021A80994B4FF001029A744FF04C
:100DE000C001D9744FF0A80119755A754FF042012E
:100DF00099754FF0090159764FF0040199764FF03B
:100E00000601D9751A764FF06F021A774FF0280253
:100E1000DA768B4F3C464FF0000342F2F45EC2F2AA
:100E2000000E40F20006C2F2000603EB43010EEB97
:100E3000810101F58A4101F1670203F11E00C0EB57
:100E4000C005C0EBC5003018B0F99751A1F86D503E
:100E5000B0F99951A1F87150B0F99351A1F86B50C4
:100E6000B0F99501A1F86F0094F8930681F8670036
:100E700094F89416917003F1010304F137040B2BDD
:100E8000D3D14BF6D453C2F200034FF000001870D8
:100E900042F28254C2F2000440F20006C2F200069E
:100EA00006F5226505F11C05FFF76EFE4FF0000305
:100EB00023804BF6B951C2F200019C46984681F856
:100EC0000080634642F29C5EC2F2000EB4F900203C
:100ED000DEF80000C2EBC202801803EB050919F826
:100EE0000220C2540B7803F10103DBB20B70062B16
:100EF000ECD9238803F101039BB223801BB2072B9B
:100F0000DDDD4BF6D453C2F200031A784BF63C7386
:100F1000C2F200034FF0010199544BF6E473C2F2A0
:100F20000003D3F800E04FF0BC0303FB026202F5BC
:100F3000266202F112024FF000030EEB430132F879
:100F4000020F888203F101035E2BF6D14FF00003FC
:100F500023804BF6E47CC2F2000C41F2F80EC2F2A0
:100F6000000E4BF6D450C2F20000DCF800101BB2A9
:100F7000027802EB820203EB42020EEB420232F8ED
:100F8000A42C21F81320238803F101039BB22380B2
:100F90001AB2092AE9DD4BF6BC53C2F20003D3F8BA
:100FA00000804FF000010A464FF02C0C4FF0010E6C
:100FB000C1EBC10301EB8303434483F894C283F87C
:100FC00095E283F8962283F8972283F8992283F892
:100FD0009A2283F89B2283F89C2201F101011829AF
:100FE000E6D14FF0000323804BF6E87EC2F2000EFC
:100FF00041F2F800C2F20000DEF800201BB200EB64
:10100000430131F8041C22F81310238803F1010373
:101010009BB223809AB2162AEED94FF000022280AA
:1010200042F27851C2F2000141F2F803C2F2000329
:1010300008E000BFF5250020515D0020F45F00208E
:101040006C010020086812B2B3F82CE020F832E0FE
:10105000D1F800E0228810B24FEAC0008644D3F8ED
:1010600038C08EF806C0B3F830C0AEF802C0D1F870
:1010700000E07044B3F834E0A0F804E002F10102AB
:1010800092B2228010B21728DCDD4BF6D453C2F2A4
:1010900000031B78254A4FF4B47101FB0323384643
:1010A0004FF00002C2EBC201C2EBC1017118B1F9ED
:1010B00097E1A3F806E0B1F999E1A3F80AE0B1F9E4
:1010C00093E1A3F804E0B1F99511198190F8221089
:1010D000997090F8211003F80C1B02F1010200F145
:1010E00037001E2ADED14BF6B953C2F200031A7044
:1010F0004BF6D453C2F20003187800F10100C0B2DD
:10110000187007287FF6D0AE0EF018FC4BF650533F
:10111000C2F200034FF019021A7042F2F453C2F205
:1011200000034FF050021A70BDE8F8831B600020E6
:1011300010B442F2A453C2F2000342F2AC51C2F224
:1011400000014FEA40021418096801EBC40101F1E3
:10115000E20119604BF65853C2F200034BF6BC5142
:10116000C2F20001096801EBC40119604BF600638B
:10117000C2F200034BF6AC51C2F2000109688A18B2
:101180001A604BF64C53C2F2000342F29C52C2F278
:1011900000024FEAC0010C1A126812191A604BF6CD
:1011A000BC73C2F200034BF6E472C2F20002126892
:1011B00002EB400000F11400186042F27C53C2F2CE
:1011C000000342F27852C2F200021268511819600C
:1011D00010BC7047F0B442F2F453C2F2000348F678
:1011E00047529A18B2F9005003F50C42D2F8664102
:1011F0006419C2F86641D2F86C114FF4487606FBC8
:1012000001F644F6D350C1F2620080FB06714FEA4A
:10121000E676C6EBA1164FF0C80101FB0561C2F8E6
:101220006C1180FB01204FEAE171C1EB9011A3F832
:101230003D1003F5AC4303F137031B889BB142F229
:10124000F453C2F2000304EB44044FEA440444F6AE
:10125000D352C1F2620282FB04724FEAE474C4EB1F
:101260009214A3F82F4042F2F453C2F20003B3F9F0
:101270003F0048F649529A18B2F900204FF0C801D1
:1012800001FB02F14FF4487202FB001244F6D35105
:10129000C1F2620181FB02014FEAE272C2EB9112DC
:1012A000A3F83F20F0BC7047184B1B88C3B142F233
:1012B000F453C2F2000303F50C4202F5B372126854
:1012C00002EB42024FEA420244F6D351C1F26201FC
:1012D00081FB02014FEAE272C2EB9112A3F82F20C8
:1012E00042F2F453C2F2000303F50C42D2F86C212F
:1012F00044F6D351C1F2620181FB02014FEAE2726E
:10130000C2EB9112A3F83D20704700BF2B7C002058
:10131000B0F900308B42B8BF01807047B0F900309F
:101320008B42C8BF018070472DE9F00105464BF69E
:101330005853C2F20003D3F800C04FF000038CF8FA
:1013400016304BF6BC73C2F200031C68238833B31B
:101350004FF00003184642F2F457C2F200074FF074
:1013600068064FF0010806FB035202F52A5202F10B
:10137000440207EB4202B2F807102288914209D1D9
:1013800008FA03F21043C0B29CF8162002F10102E1
:101390008CF8162003F10103082BE4D101E04FF093
:1013A0000000BDE8F001704710B404464BF65853F6
:1013B000C2F200031B6893F9131011F0010F0DD155
:1013C0004FF00103D8B241FA03F212F0010F07D136
:1013D00003F10103082BF5D1204601E04FF0000096
:1013E00010BC704730B404464BF6F855C2F2000505
:1013F000B5F90050854201DD884207D142F2F25230
:10140000C2F200024FF00003138012E08D4205DDAE
:1014100042F2F251C2F200010A800AE042F2F250B6
:10142000C2F200002D1B02FB05F20C1B92FBF4F232
:101430000280184630BC70472DE9F84307460C4639
:1014400015461E460EF07AFA4BF6BC53C2F2000364
:101450001968BFB242F28253C2F200031F8042F207
:101460007853C2F20003D3F800C03FB20CEBC403C0
:10147000B3F9023007FB03F342F26452C2F20002F6
:10148000136048F6AD32C6F6DB0282FB03024FEA78
:10149000E373C3EB223292B24BF6F853C2F200036D
:1014A0001A8004F5967301EB4303B3F9048048F204
:1014B0001F50C5F2EB1080FB08904FEAE873C3EBB6
:1014C0006010101880B242F2F253C2F2000318808A
:1014D00003B21FFA85F99D4212DA12B2AD1A05EB7A
:1014E000850505EB85054FEA850501EB4403A3F867
:1014F0005C5242F2F253C2F20003A3F800902AE0D9
:1015000000B2B5B2864211DD12B2B61A06EB8606FB
:1015100006EB86064FEA860601EB4403A3F85C62FD
:1015200042F2F253C2F200031D8014E00CEBC40C33
:10153000BCF9043003FB07F748F21F53C5F2EB1365
:1015400083FB07034FEAE777C7EB631701EB44021E
:10155000B844A2F85C8242F27853C2F200031B68DE
:1015600003EBC403B3F904302BB904F5967401EB13
:1015700044010B714B7142F2F253C2F2000393F932
:101580000000BDE8F88300BF10B442F2F453C2F289
:101590000003B3F9411001F00101A3F8411003F574
:1015A000B843B3F9EB00B42808D142F2F453C2F2C5
:1015B00000031A6C6FF317221A6474E042F2F453BA
:1015C000C2F2000303F5B842B3F93F40B2F96F30FD
:1015D0009C4268DB42F2F453C2F2000348F64B52DD
:1015E0009A18B2F90020101800B246F2B702CBF2F6
:1015F0000B6282FB004212184FEAE074C4EB222215
:101600004FF4B47404FB120080B242F2F252C2F200
:101610000002108003F5C44383F8DC1051B903B213
:101620005F2B07DDB3F5847F04DC4FF001021F4B15
:1016300083F8DC2042F2F453C2F20003B3F94130E4
:1016400073B142F2F253C2F200031B88A3F15503B7
:101650009BB2BE2B04D94FF00002144B83F8DC2060
:1016600042F2F453C2F2000303F5C44292F9DC20C3
:10167000B3F9413011469A4210D00C4A92F8DD304D
:1016800003F10103DBB282F8DD305BB2042B0ADD2B
:1016900042F2F453C2F20003A3F841104FF00002EB
:1016A000024B83F8DD2010BC704700BFF487002098
:1016B00010B582B004460DF08FF938B14FF001003B
:1016C00021460DF107020DF0DDF914E09CB104F1A3
:1016D000FF34A4B24F2C0ED84FEAD4024BF6D87385
:1016E000C2F2000304F007044FF0010101FA04F410
:1016F000995C0C439C5402B010BD00BF10B582B081
:1017000004460DF069F938B14FF0000021460DF1A3
:1017100007020DF0B7F913E094B104F1FF34A4B25D
:101720004FEAD4024BF6D873C2F2000304F0070468
:101730004FF0010101FA04F4995C21EA04049C547D
:1017400002B010BD10B582B004460DF045F928B1C5
:1017500020460DF107010DF049FA17E0A4B104F19C
:10176000FF34A4B204F007034FF0010202FA03F2BF
:101770004BF6D873C2F200034FEAD4041B5D1A4241
:101780000CBF0020012001E04FF0000002B010BDAE
:1017900070B582B016461D4642F2F453C2F2000301
:1017A0004FF0680202FB001101F52A5101F14401DA
:1017B00003EB4103B3F8074074B320460DF00CF976
:1017C00050B1D6F1010038BF00202C19A1B20DF1A3
:1017D00006020DF057F91FE004F1FF346519ADB2B0
:1017E0004FEAD50305F007054FF0010202FA05F5AF
:1017F000ADB20A2B10D846B14BF6D872C2F2000235
:10180000D15C21EA0505D55406E04BF6D872C2F248
:101810000002D15C0D43D55402B070BD4BF6A85305
:10182000C2F200031B78012B05D14BF6D473C2F230
:1018300000031B6818704BF6A853C2F200031B7814
:10184000022B05D14BF6D473C2F200031B6818605B
:10185000704700BF174B93F918304BB1034601E0B6
:10186000232A04D013F8012B002AF9D100E01846EE
:101870000378F3B1232B1CD041F66472C2F200024C
:1018800012784BF60861C2F200018B5402F101029A
:10189000D2B210F8013F2BB941F66473C2F20003D3
:1018A0001A707047232BF0D141F66473C2F2000323
:1018B0001A707047F45F00202DE9F04105460C4690
:1018C00042F2E253C2F200031B7873B94BF6D473B1
:1018D000C2F20003186041F66473C2F200031A7882
:1018E0005A70997001F00F02DA700EF027F8A4F127
:1018F0000403412B00F29F83DFE813F0E8018F011E
:101900009D039D036E029D039D039D039D039D0307
:101910009D0351039D03C3009D03E801EE001902DE
:101920009D0342019D039D039D039D039D039D0314
:101930009D039D039D0342009D039D039D036E0235
:101940009D039D039D039D039D039D039D039D0397
:101950009D039D039D039D039D039D039D03D30252
:101960009D039D039D039D039D039D039D039D0377
:101970009D039D039D039D039D039D039D031203F2
:101980002C8841F66473C2F2000319784BF60862A2
:10199000C2F200024FF03D00505401F101011970F4
:1019A0000DF0CCFF42F2E253C2F200031B7853B9B0
:1019B00042F26E53C2F200031C8041F66473C2F21D
:1019C00000031A785A702046FFF7BCFE78B141F642
:1019D0006473C2F2000319784BF60862C2F2000287
:1019E0004FF03100505401F1010119700EE041F641
:1019F0006473C2F2000319784BF60862C2F2000267
:101A00004FF03000505401F10101197041F664713A
:101A1000C2F200010A784CF6CD40CCF6CC40A0FBD7
:101A200002324FEA121202EB82024FEA8202D2B273
:101A30004BF60863C2F2000302F11A05EDB24FF053
:101A40005B065E5502F11B05EDB2A0FB04604FEA98
:101A5000D00000F130065E5502F11C05EDB200EB3E
:101A60008000A4EB400404F130045C5502F11D0039
:101A7000C0B24FF05D041C5402F11E020A70BDE8B2
:101A8000F08142F2E253C2F200031B784BB94BF6ED
:101A9000C673C2F200034BF6D452C2F200021278AF
:101AA0001A704BF6D453C2F200032A781B781A42FC
:101AB00041F66473C2F2000319784BF60862C2F271
:101AC000000214BF31203020505401F1010119707F
:101AD0000DF034FFBDE8F081B5F90030002B13DACA
:101AE00041F66473C2F2000319784BF60862C2F241
:101AF00000024FF02D00505401F1010119702988A6
:101B0000C1F1000189B200E0298801F1050189B223
:101B10004CF6CD46CCF6CC46A6FB01714FEAD1017E
:101B200041F66474C2F2000422784BF60865C2F2F2
:101B30000005AA18A6FB01834FEAD30303EB830039
:101B4000A1EB400101F13001D1709BB2A6FB03C6AD
:101B50004FEAD60606EB8601A3EB410303F13003FF
:101B600053700DF0EBFE237806F13006EE54ED18BD
:101B70004FF02E02AA7003F104032370BDE8F08138
:101B80002E8841F66474C2F2000425784BF6086191
:101B9000C2F200014B194CF6CD42CCF6CC42A2FB6E
:101BA00006704FEAD00000EB8007A6EB470606F16F
:101BB00030069E7186B2A2FB06804FEAD00000EB91
:101BC0008007A6EB470606F130065E7186B2A2FBDF
:101BD00006C04FEAD00000EB8007A6EB470606F1EF
:101BE0003006DE7080B2A2FB00624FEAD20202EB46
:101BF0008206A0EB460000F13000987002F130023E
:101C00004A554FF02E025A701A710DF097FE237844
:101C100003F107032370BDE8F0812D8841F664735A
:101C2000C2F2000318784BF60862C2F200021318E1
:101C30004CF6CD44CCF6CC44A4FB05714FEAD1015F
:101C400001EB8106A5EB460505F130051D718DB24E
:101C5000A4FB05814FEAD10101EB8106A5EB460506
:101C600005F13005DD7089B2A4FB01C44FEAD4044C
:101C700004EB8405A1EB450101F130015970A4B2D8
:101C800004F1300111544FF02E029A700DF056FEFF
:101C9000092C11D941F66473C2F200031A784BF68D
:101CA0000863C2F200034FF0210199549B184FF0D2
:101CB00030025A70DA701A7141F66473C2F200038E
:101CC0001A7802F105021A70BDE8F081298814F033
:101CD0000F0421D041F66473C2F200031A7802F1B6
:101CE000FF3223464BF60866C2F20006B6184CF6E1
:101CF000CD45CCF6CC45A5FB01024FEAD20202EB62
:101D00008200A1EB400101F13001F15491B203F1E5
:101D1000FF33DBB2002BEED141F66473C2F2000355
:101D20001A78A4181C700DF009FEBDE8F0812E8809
:101D300042F27453C2F200031B7813F0010F0CD06F
:101D40004BF60863C2F2000341F66472C2F200026D
:101D500012789B184FF03A029A7041F66473C2F2FF
:101D6000000319784BF60862C2F2000254184CF6D0
:101D7000CD40CCF6CC40A0FB06754FEAD50505EB6F
:101D80008507A6EB470606F130062671AEB24AF685
:101D9000AB25CAF6AA25A5FB06854FEA950505EBF6
:101DA0004507A6EB470606F13006E670ADB2A0FB8C
:101DB00005C04FEAD00000EB8006A5EB460505F113
:101DC0003005657000F13000505401F105011970C3
:101DD0000DF0B4FDBDE8F0812F8841F66473C2F2C6
:101DE000000318784BF60861C2F200010A184FF0A0
:101DF0002F0595705FFA87FE4CF6CD45CCF6CC45A5
:101E0000A5FB0E864FEAD60606EB860CAEEB4C0E13
:101E10000EF1300E82F801E006F130060E544FEA62
:101E20001726A5FB06C14FEAD10101EB8105A6EB00
:101E3000450606F13006167101F13001D17000F14E
:101E4000050018700DF07AFD082C40F0278141F64E
:101E50006473C2F2000319784BF60862C2F2000202
:101E60004FF02F00505442F2F450C2F2000090F8AC
:101E7000474052184CF6CD40CCF6CC40A0FB045065
:101E80004FEAD00000EB8005A4EB450404F13004D8
:101E9000947000F13000507001F103011970BDE839
:101EA000F0812E8841F66473C2F200031C784BF671
:101EB0000862C2F2000211194FF02E00C8704CF6F1
:101EC000CD40CCF6CC40A0FB06754FEAD50505EB1E
:101ED0008507A6EB470606F130060E71AEB2A0FBF1
:101EE00006854FEAD50505EB8507A6EB470606F103
:101EF00030068E70ADB2A0FB05C04FEAD00000EBFB
:101F00008006A5EB460505F130054D7000F1300067
:101F1000105504F105041C700DF010FDBDE8F081B2
:101F20002E8841F66473C2F200031C784BF60862F7
:101F3000C2F2000211194FF02E0048704CF6CD404D
:101F4000CCF6CC40A0FB06754FEAD50505EB85071E
:101F5000A6EB470606F130060E71AEB2A0FB068571
:101F60004FEAD50505EB8507A6EB470606F13006D7
:101F7000CE70ADB2A0FB05C04FEAD00000EB8006EA
:101F8000A5EB460505F130058D7000F130001055C8
:101F900004F105041C700DF0D1FCBDE8F08141F6A0
:101FA0006473C2F20003197801F102034BF6086270
:101FB000C2F200029B1802F112077F184CF6CD40C6
:101FC000CCF6CC404FF02D0615F8011BA0FB0142CA
:101FD0004FEAD20202EB8204A1EB440101F130018D
:101FE0001970D1B2A0FB01824FEAD20202EB820447
:101FF000A1EB440101F1300103F8011C02F13002B0
:1020000003F8022C5E7003F10403BB42DCD141F6FD
:102010006473C2F200031A7802F10F02D2B21A708E
:102020004BF60863C2F200034FF0200199540DF003
:1020300085FCBDE8F0812A7814F00F0427D041F622
:102040006473C2F2000393F800C00CF1FF3C234616
:102050004BF60867C2F200074CF6CD45CCF6CC45EE
:10206000FE18D1B2A5FB01804FEAD00000EB800042
:10207000A1EB400101F1300106F80C10A5FB0202B2
:102080004FEAD20203F1FF33DBB2002BE8D141F675
:102090006473C2F200031A78A4181C70BDE8F081C2
:1020A0002DE9F04789464BF6BC53C2F2000300F11C
:1020B000AC081B6803EBC80808F10404B4F906A0D7
:1020C0001AF1000A18BF4FF0010A42F2AC53C2F2F3
:1020D00000031B68102894BF181803F1100090F833
:1020E0007A305AB2012A05DCBAF1000F02D1A3708E
:1020F0004FF0010A42F2AC56C2F2000632684BF6CB
:10210000F853C2F20003B2F90210B2F964208A1A3D
:102110001A8042F2F457C2F2000707F5B845B5F944
:10212000CD00B5F9CF10B5F9D1204FF00003FFF77E
:1021300059F9B5F9931042F2F253C2F20003B3F920
:102140000020891A3268B2F9640048F64552BA187C
:10215000B2F90020821A92B21A80B9F1000F04D0AD
:10216000B9F1010F40F04681F0E0BAF1000F47D11C
:1021700010B29A4BB3F9003003F1C8039842C4BFC0
:102180000123A370954BB3F9003098B212B21BB281
:102190009A4200DB10B94FF00003A370904BB3F9E3
:1021A00000309AB262B142F2F452C2F20002B2F9C5
:1021B0003D201BB29A420ADD4FF00003A37006E0F7
:1021C00042F2A853C2F200031B7803B9A37042F293
:1021D000AC53C2F200031B681B7913F0080F1CBF3D
:1021E0000123A3707F4BB3F900304BB142F2F4539B
:1021F000C2F20003B3F93D309942BCBF0123A37082
:1022000094F9022094F903309A4216D04BF6BC534D
:10221000C2F200031B6893F8BF2522F0010283F885
:10222000BF25714AB2F90020E28094F9022022B958
:102230006E4A92F8302083F8CB25A378E3704BF6F2
:10224000BC53C2F200031A6892F8CB3503F1FF3396
:10225000DBB282F8CB355BB2002B00F318814FF074
:10226000000382F8CB354BF6F852C2F2000242F27C
:10227000AC55C2F20005296891F8380091F8391080
:1022800040EA01211180594AB2F95300B2F95510C0
:10229000B2F95720FFF7A6F82B6893F83A3013F0FD
:1022A000200F0BD042F2F253C2F200034F4A92F8D1
:1022B000571092F8582041EA02221A804BF6E87330
:1022C000C2F200031B68B3F9241042F2F253C2F2C7
:1022D0000003B3F90000454BB3F95720821A8A185E
:1022E00094F9021001FB02F2A8F8042042F2AC5566
:1022F000C2F2000529684BF6F852C2F20002B1F9A9
:102300001400B1F96E10411A1180B3F9D900B3F974
:10231000DB10B3F9DD204FF00003FFF763F82B6803
:10232000B3F96E3033B942F2F253C2F200034FF008
:1023300000021A80B4F9002042F2F253C2F2000304
:102340001B88D31AA8F80430BDE8F087BAF1000F53
:102350002BD1274BB3F9000013B29842C4BF01231D
:10236000A3704BF6BC53C2F200031B6893F96635A9
:1023700053B11F4BB3F9003098B212B21BB203F144
:10238000C8039A4200DC10B94FF00003A370154B4C
:10239000B3F900304BB142F2F453C2F20003B3F987
:1023A0003D309942BCBF0123A370A37894F9031078
:1023B0005AB2914203D00C4AB2F90020E280E37095
:1023C0004BF6E872C2F200021268B2F926205BB244
:1023D00002FB03F3A8F80430BDE8F0877D820020FB
:1023E0007B82002087820020DB820020F481002095
:1023F00081820020BAF1000F35D14BF6D453C2F2DE
:1024000000034FF00001197042F2D153C2F20003F1
:102410001970204BB3F9001013B29942C4BF0123C5
:10242000A3701C4BB3F9003099B212B21BB203F186
:10243000C8039A4200DC11B94FF00003A37042F2C6
:10244000F453C2F2000303F5B84202F19102B2F96B
:10245000002091B2B3F93D3012B2934203DD11B1C5
:102460004FF00003A370A37894F903105AB291427D
:1024700003D0094AB2F90020E280E3705BB203EBBB
:10248000830303EB83034FEA8303A8F80430BDE81A
:10249000F08700BF7F820020DB82002008B5014664
:1024A0004BF6BC53C2F2000318684BF6E473C2F259
:1024B00000031B6801F1160203EB42039B88DBB1AA
:1024C00000EBC10000F5AC6000F10400B0F906308B
:1024D00003F1FF339BB2C38013F4004F05D1074AC9
:1024E000B2F900201BB29A4203DA4FF00003837165
:1024F000C3710846FFF7D4FD08BD00BFDB82002092
:1025000070B44BF6BC53C2F200031C684BF6AC53DC
:10251000C2F2000300F10E021B6803EB420113F844
:10252000123013F0010F40F0B58004EBC00303F547
:10253000AC6303F10403B3F90450AEB22AB2002A2B
:1025400004DA4FF000021A715A7104E01EB105F16D
:10255000FF359D809EE04D784BF6D452C2F20002CA
:102560001570B3F9006042F2F252C2F20002168016
:1025700048BB42F2AC52C2F200021268B2F9E0214A
:10258000B61AB6B2B0B242F2F252C2F200021080F3
:1025900094F8BF2512F0010F15D0AD1BADB242F279
:1025A0008253C2F200031D8058B103B2642B08D0DD
:1025B0002DB2002DB8BF6D42374BB3F900309D42AC
:1025C00068DD487066E0354AB2F9002095420CDBC0
:1025D000334AB2F9002095420ADA324AB2F9A140F0
:1025E000E4B2B2F9A3209A8004E04FF0000401E0C5
:1025F0004FF000044BF6D452C2F200021078284A81
:10260000B2F90020904206DB264AB2F9A740E4B2B4
:10261000B2F9A9209A8042F2F252C2F20002128864
:10262000801A80B242F28252C2F20002108002B2DC
:10263000002A07DD4B781B1B4B705CBB4FF000037F
:102640004B7027E010F4004F20D04A78A2184A704F
:102650001CB9124AB2F900204A7042F2F252C2F298
:10266000000212884C78D0B2844213D393F902301E
:1026700083B14A704BF6BC53C2F200031B6893F857
:10268000BF2542F0010283F8BF2503E04FF00002AE
:102690001A715A7170BC70479F820020938200208B
:1026A00099820020F48100202DE9F0034BF6BC5301
:1026B000C2F200031D684BF6E473C2F200031B680C
:1026C00000F1080403EB44039B88002B00F01B81FE
:1026D00000EBC00303F59E6303F10703EE1806F158
:1026E000050C4FEA40074BF6AC53C2F200031C68DE
:1026F00004EB070814F8103013F0010F05D04FF069
:10270000000373718CF80130FDE001B1CAB91128E2
:102710000AD14FF0000385F8563585F857357B4BC5
:10272000B3F90030A5F8D8354FF0000373718CF879
:1027300001304BF6AC52C2F200021268D7197B701E
:10274000E1E0112838D142F2AC53C2F200031B6819
:102750008C1AA4B2A3F8C0402CB94FF0FF3483F810
:10276000C04083F8C1408C1A694B93F97A30DC423F
:1027700007D54FF0000385F8563585F8573588F8AA
:1027800001304BF6BC53C2F200031C68B4F9D855B3
:102790001FFA85F82BB2002B06DA4FF0000384F8FD
:1027A000D83584F8D93507E0B8F1000F04D005F129
:1027B000FF35A4F8D855A6E0891A42F27853C2F240
:1027C00000031A6802EBC003B3F9023003FB01F304
:1027D00044F6D354C1F2620484FB03544FEAE3731A
:1027E000C3EBA414A4B242F28253C2F200031C80D1
:1027F000BCF9003048F21F55C5F2EB1585FB038587
:102800004FEAE373C3EB6515ADB24BF6F853C2F272
:1028100000031D8042F2F253C2F200034FF064083D
:10282000A3F800804BF6E873C2F200031B681B8D0F
:10283000022B07D142F2F253C2F200034FF0C80854
:10284000A3F800802DB242F2F253C2F20003B3F8B3
:10285000008023B20FFA88F9C3EB09094D4507DD63
:102860004BF6F853C2F20003C4EB08041C801EE0D0
:10287000DD4207D54BF6F853C2F20003C4F1000461
:102880001C8014E002EBC002B2F9043003FB01F13A
:1028900044F6D353C1F2620383FB01234FEAE17193
:1028A000C1EBA313BCF90020D318A6F8053042F2FF
:1028B0007853C2F200031B6803EBC000B0F9043088
:1028C00013B973718CF801304BF6F852C2F2000262
:1028D00042F28253C2F2000312881B88D21892B2CD
:1028E0004BF6BC53C2F200031B68A3F8562513B283
:1028F000642B4BF6AC53C2F200031B681F44C6BFE7
:1029000064237B707A70BDE8F0037047FB81002080
:10291000F481002010B44BF6BC53C2F200031A68D5
:10292000B2F956154BF6E873C2F200031B681B8D13
:10293000002B57D0112855D109B2022B08BF64399A
:1029400000EBC000121802F59E6202F10C0221EAAF
:10295000E1714BF6F853C2F200034FF0000018800B
:1029600042F2D153C2F2000318701F4B93F9793031
:10297000938009B9107150711B4890F9773090F924
:102980007800181A01FB00F148F21F50C5F2EB1055
:1029900080FB01404FEAE171C1EB60115B1A9BB211
:1029A00098B25080B2F907108CB224B101F1FF3116
:1029B000A2F8071016E092F9061041B138B14FF0B5
:1029C0000001917103F1FF33A2F807300AE0B2F978
:1029D000043099B231B14FF00101917103F1FF332D
:1029E000A2F8073010BC7047F481002042F2AC53CB
:1029F000C2F200031B68B3F96E2091B239B1B3F98A
:102A0000140083B233B100B212B2801A70474FF093
:102A1000000070474FF00000704700BF42F2A4531F
:102A2000C2F200031B681A7C42F001021A744BF6D2
:102A30005853C2F200031B684FF000029A731A72D7
:102A40005A72704710B5044642F2A453C2F2000312
:102A50001A684BF6E873C2F200031B6833F91030B2
:102A60005380032813D142F2A453C2F20003196821
:102A70004BF6E872C2F200021268B2F912008880C6
:102A8000B2F918200A801B68B3F90420DA8042F2F8
:102A9000A453C2F200031868B0F904304BB94BF6E6
:102AA0000063C2F200031B6893F8303013F0010F8B
:102AB00003D0437C43F00403437400F1060042F268
:102AC000AC53C2F200031B68B3F9643046F267618D
:102AD000C6F2666181FB03214FEAE373C3EBA101F8
:102AE000A1F1320109B2FEF713FC42F2A453C2F283
:102AF00000031B68B3F90220B3F9060011B2884243
:102B0000C8BFDA80042C40F09F8042F2AC52C2F27F
:102B10000002126892F83A1011F0200F2BD1B2F98E
:102B200038204A49B1F9001014B208B2844222DABE
:102B30004BF6F850C2F200000280454AB2F900009C
:102B400009B2B3F90220A2F1FA024FF00003FEF736
:102B500049FC42F2A453C2F200031B68B3F902100D
:102B600042F2F252C2F2000212888A1ADA815A7CC8
:102B700042F004025A74374B93F8783113F0020F85
:102B800030D04BF6F852C2F2000242F2F453C2F2D5
:102B9000000303F50C41D1F8441141F30F211180DA
:102BA00003F5B843B3F9310042F2A454C2F2000471
:102BB0002268B2F90220B3F92730D21A4FF4C87153
:102BC0004FF00003FEF70EFC2368B3F9021042F247
:102BD000F252C2F2000212888A1ADA815A7C42F05A
:102BE00004025A744BF6BC53C2F200031B6893F9FB
:102BF000CB353BB942F2F453C2F2000393F83630BE
:102C0000092B0BD142F2A453C2F200031B685A7C79
:102C100042F004025A74B3F90220DA8142F2A45459
:102C2000C2F20004236803F10E00B3F90610FEF7A8
:102C30006FFB23685A7C12F0040F05D14FF000029D
:102C40009A73DA739A70DA7010BD00BF1782002091
:102C500027820020F4B100204BF6BC53C2F20003DF
:102C60001B6842F2AC52C2F200021268B2F974114F
:102C7000A3F8EE11B2F97821A3F8F0214FF0000289
:102C800083F8FC2183F8FD214BF6AC52C2F200021E
:102C90001268917D11F0010F06D14BF6E471C2F27A
:102CA00000010968498D39B94FF0010183F8FC1121
:102CB0004FF0000183F8FD1192F91720A3F8FA21D3
:102CC000B3F9EE21B3F9F80111B28842C8BFA3F8F5
:102CD000F821B3F8FC21CAB9B3F9F811B3F9EE2120
:102CE000914207DA4FF0020283F8FC214FF0000214
:102CF00083F8FD21B3F9F811B3F9F021914205DD14
:102D0000B3F8FC2142F00402A3F8FC214BF6BC53BB
:102D1000C2F200031A6842F27853C2F200031B6841
:102D2000B3F95A304FF47A7101FB03F3B2F9E215AB
:102D300093FBF1F3A2F8F631704700BF4BF6BC539A
:102D4000C2F200031B684FF01E0283F82A224FF0E4
:102D5000000283F82B223E4AB2F9002091B212B24F
:102D6000B2F5966F06DA29B14FF0000283F82A22F5
:102D700083F82B224BF6BC53C2F200031B684FF0C2
:102D8000000283F82C2283F82D22B3F9FA211D2AA0
:102D900005DC4FF0000283F82A2283F82B224FF043
:102DA000000283F8382283F839224BF6AC52C2F283
:102DB0000002126892F8241011F0010F06D14BF6B0
:102DC000E471C2F200010968098F39B94FF00101BD
:102DD00083F838124FF0000183F8391292F9252058
:102DE000A3F83622B3F92A22B3F9340211B2884289
:102DF000C8BFA3F83422B3F83822CAB9B3F93412E1
:102E0000B3F92A22914207DA4FF0020283F83822FE
:102E10004FF0000283F83922B3F93412B3F92C22AF
:102E2000914205DDB3F8382242F00402A3F83822BB
:102E300042F27853C2F200031B68B3F992204BF6BA
:102E4000BC53C2F200031B68A3F83222704700BFD4
:102E500039B300204BF6BC53C2F200031B6800EBF1
:102E6000800203EB8202B2F9A6215AB900EB80027C
:102E700003EB82026FF0170182F8A6114FF00301F5
:102E800082F8A71100EB800003EB8003B3F9A821BF
:102E900003F5D07342F2107000FB02F0B3F9063074
:102EA00090FBF3F0704700BF4BF6BC53C2F2000337
:102EB0001B6800EB800203EB8202B2F9A6215AB92B
:102EC00000EB800203EB82026FF0170182F8A6117B
:102ED0004FF0030182F8A71100EB800003EB8003A1
:102EE000B3F99E2142F2107000FB02F0B3F9A63153
:102EF00090FBF3F0704700BF10B44BF6BC53C2F226
:102F000000031B6800EB800203EB8202B2F99E21F2
:102F1000002A09DA00EB800203EB82024FF0000185
:102F200082F89E1182F89F1100EB800203EB82026F
:102F3000B2F99E11B2F9A8410AB2944205DD00EB44
:102F4000800203EB8202A2F8A81100EB800203EBDF
:102F50008202B2F9A011B2F9A8410AB2944205DA8C
:102F600000EB800003EB8003A3F8A81110BC7047AE
:102F70004BF6BC53C2F200031B68B3F9F80170476B
:102F80004BF6BC53C2F200031B68B3F9200242F2B5
:102F9000AC53C2F200031B6893F97930C018704734
:102FA00008B54BF6BC53C2F20003196842F2AC53A9
:102FB000C2F200031A684BF6E873C2F200031B6802
:102FC000B3F90E0092F97930C31A9BB2A1F8163208
:102FD00092F879201BB250B2C0F13C00834201DD6F
:102FE000A1F816024BF6F853C2F2000342F2F45273
:102FF000C2F20002D26B42F30F221A80B1F91622FC
:103000004FF000004FF496710346FEF7EBF94BF6D4
:10301000BC53C2F200031B6842F2F252C2F2000239
:103020001288A3F816224FF0000283F8182283F8C2
:10303000192283F8242283F825224BF6AC52C2F2DF
:1030400000021268117E11F0010F06D14BF6E471F7
:10305000C2F200010968898D39B94FF0010183F886
:1030600024124FF0000183F8251292F91920A3F8D9
:103070002222B3F91622B3F9200211B28842C8BF46
:10308000A3F82022B3F82422CAB9B3F92012B3F965
:103090001622914207DA4FF0020283F824224FF001
:1030A000000283F82522B3F92012B3F918229142C5
:1030B00005DDB3F8242242F00402A3F8242242F2F0
:1030C0007853C2F200031B68B3F962204BF6BC537D
:1030D000C2F200031B68A3F81E2208BD70B44BF6B1
:1030E000BC53C2F200031D6800EB800305EB8303B1
:1030F00003F5CC764FF0000483F8A44183F8A54192
:103100007AB100EB800305EB8303B3F8AC3113F025
:10311000020F1AD000EB800005EB8005A5F8A41182
:1031200013E04BF6BC53C2F200031B6800EB8002B5
:1031300003EB8202B2F8AC2112F0040F05D000EBD1
:10314000800003EB8003A3F8A41170BC704700BF9C
:1031500008B500281ADB002932DB4FF004004FF0DD
:103160000A014FF00102FFF7B9FF4FF006004FF0E0
:1031700009014FF00102FFF7B1FF4FF007004FF0D8
:1031800000014FF00102FFF7A9FF08BD002930DB65
:103190004FF007004FF000010A46FFF79FFF4FF086
:1031A00006004FF009014FF00002FFF797FF4FF0C4
:1031B00004004FF008014FF00002FFF78FFF08BD39
:1031C0004FF007004FF000014FF00102FFF786FFBC
:1031D0004FF004004FF009014FF00102FFF77EFFAE
:1031E0004FF006004FF008014FF00102FFF776FFA5
:1031F00008BD4FF006004FF00A014FF00002FFF744
:103200006DFF4FF004004FF009014FF00002FFF78F
:1032100065FF4FF007004FF000010A46FFF75EFF21
:1032200008BD00BFF0B44BF6BC53C2F20003D3F8A4
:1032300000C04FF000031A464FF6FF759EB203EB35
:1032400083010CEB8101B1F9A441A7B224B211B200
:103250008C42C8BF3A468C42C8BF354603F10103D1
:10326000082BEBD115F4004F0FD09CF8AB3503F1D0
:103270000103DBB28CF8AB355BB2142BC4BF142353
:103280008CF8AB354FF0FF301BE04FF000038CF8AB
:10329000AB352DB205EB85050CEB850CBCF9A631E1
:1032A00003FB00F048F6AD33C6F6DB0383FB0023D7
:1032B0004FEAE070C0EB2333BCF9A821D318ACF877
:1032C000A831F0BC704700BF10B54FF00400FFF705
:1032D000C1FD4BF6F454C2F2000420604FF0070029
:1032E000FFF7B8FD2368C01820604FF00600FFF715
:1032F000B1FD2368C018206010BD00BF10B54FF0AD
:103300000400FFF7D1FD04464FF00700FFF7CCFDA6
:1033100024184FF00600FFF7C7FD201810BD00BFAE
:103320002DE9F04142F2AC53C2F20003186890F864
:1033300074305AB2012A1CDC43B1B0F97831A0F8DC
:1033400074314FF0060380F8843105E000F5B97060
:103350004FF01801FDF7D8FB4BF6BC53C2F2000347
:103360001B684FF0000283F8982083F89920BDE88D
:10337000F0814FF0010380F88431FFF737FB4BF603
:10338000F857C2F20007388042F2F456C2F2000643
:1033900006F5B844B4F91900B4F91B1094F92120CA
:1033A0004FF00003FEF71EF842F2AC53C2F20003E6
:1033B000186800F5BC7042F2F255C2F20005B5F98A
:1033C0000010FDF7A5FF06F50C43D3F86C313B80E8
:1033D000B4F98100B4F98310B4F985204FF00003EB
:1033E000FEF700F848F64553F318B3F900202B8890
:1033F000D3183B80B4F97B00B4F97D1034F97F2FEA
:10340000A2F57A724FF00003FDF7ECFF4BF6BC53C8
:10341000C2F200031B68B4F900102A888A1AA3F8C4
:10342000E225B4F90020B2F57A7F07DA6FF01702CF
:1034300083F8E2254FF0030283F8E3254BF6E873A7
:10344000C2F200031B68B3F90C70944BB3F900305F
:103450009F420FDD924B93F978315BB142F2AC534E
:10346000C2F200031B684FF01A0283F884218B4BD1
:10347000B3F900704BF6F856C2F2000642F2F4546B
:10348000C2F2000404F50C43D3F8443143F30F2394
:10349000338004F5B848B8F9730000F5FA714FF0BD
:1034A000C8024FF00003FDF79DFF42F28253C2F2C3
:1034B000000342F2F255C2F200052A881A8094F8FD
:1034C0003F3094F8402043EA02233380B8F96D106E
:1034D000A1F5FA704FF064024FF00003FDF782FF90
:1034E0004BF6BC53C2F200031B682A8893F95105BE
:1034F00011B2884207DA08F17101B1F9001083F8BE
:10350000C91583F8512593F8C92551B200290ADD60
:1035100002F1FF3283F8C92542F2F252C2F20002F0
:1035200093F95135138042F28253C2F200031B8893
:103530001AB2642A13DD4BF6F852C2F2000242F2CC
:10354000F251C2F200010988C1F16401118042F216
:103550008252C2F20002A3F16403138011E04BF621
:10356000F852C2F2000242F2F251C2F2000109889E
:103570005B1A138042F28253C2F200034FF0000242
:103580001A804BF6F854C2F2000420464FF00001B6
:10359000FDF7BEFE39B22046FDF7C0FE42F2AC5345
:1035A000C2F200031B682288A3F8742193F98411E6
:1035B00013292BDC4BF6BC51C2F200010968B1F9AA
:1035C000980046F26764C6F2666484FB00544FEAD2
:1035D000E070C0EBA40012B200B2824204BF092224
:1035E00083F88421B1F9982046F26761C6F26661DA
:1035F00081FB02014FEAE272C2EBA102B3F978014A
:1036000012B2904204BF0A2283F884214BF6AC53D5
:10361000C2F200031B689B7D13F0010F21D042F220
:10362000AC53C2F200031B6893F8822142F00102FE
:1036300083F882214BF6BC52C2F2000211684FF0AF
:10364000000281F8982081F8992083F8742183F88A
:10365000752183F8782183F879214FF0150283F8DA
:10366000842142F2AC53C2F200031A68B2F85C3013
:1036700013F0010F1CBF1E2382F884314BF6BC539C
:10368000C2F200031B6893F8D73313F0080F1CBF76
:103690001F2382F88431BDE8F08100BF69820020D9
:1036A000F4B100202DE9F041054642F2A453C2F2E4
:1036B00000031A684FF0000393744BF65853C2F29C
:1036C0000003196891F913301BB9FFF7A7F9BDE89A
:1036D000F0814BF6B953C2F200034FF000001870AE
:1036E000B1F9143093812E464BF6E873C2F2000311
:1036F0001B6833F915304BB94FF0190393744BF62F
:10370000B953C2F200034FF0010119704BF6006388
:10371000C2F200031B6893F8301011F0010F0DD0B6
:1037200093F9313053B94FF0150393744BF6B953F5
:10373000C2F200031A7802F101021A704BF6B95373
:10374000C2F200031C781CB1FFF768F9BDE8F081F4
:1037500042F2A453C2F200031B68B3F90C2052B921
:103760004FF020029A741A7C42F002021A74FFF79A
:1037700055F9BDE8F0812846FFF764F94BF6B953D7
:10378000C2F200034FF000021A7006EB46064FEA41
:10379000C6064BF65858C2F2000840F25A2C624F47
:1037A00042F2A450C2F200004BF6B953C2F2000339
:1037B000D8F8002092F90F200CFB026202F59472F7
:1037C000A218D15D026811551C7804F10104E4B21D
:1037D0001C70072CECD94BF65853C2F200031A6840
:1037E00042F2F451C2F2000192F90F3005EB4500AC
:1037F00040F2066404FB03F303EBC003CB1803F5AC
:10380000BA43B3F91D1003F118031181DB7A9373E6
:10381000B2F908303BB142F2A453C2F200031B6874
:103820004FF00101997442F2F453C2F2000392F98D
:103830000F1005EB450540F25A2000FB01F101EBAA
:10384000C5055B1993F83C3113F0040F0BD042F21D
:10385000A453C2F200031B684FF002019974597C13
:1038600041F00401597442F2A453C2F200031B68F0
:10387000B2F9081046F26760C6F2666080FB01404C
:103880004FEAE171C1EBA001B3F9024009B28C42E9
:1038900004BF09219974B2F9082046F26761C6F2A3
:1038A000666181FB02014FEAE272C2EBA102B3F949
:1038B000060012B2904204BF0A229A74B3F90E2095
:1038C00012B14FF006029A74B3F90610B3F9022050
:1038D000A2F164029142C4BF18229A74B3F90C1089
:1038E000B3F90220A2F1320291420ADA4BF60062E9
:1038F000C2F20002126892F90120642A04BF142265
:103900009A744BF60063C2F200031B681B7813F035
:10391000010F07D042F2A453C2F200031B684FF01C
:1039200015029A74BDE8F081F725002038B50546E8
:103930004BF65853C2F200031C6894F90E3013B9C9
:10394000A371E37138BDB4F9083046F26762C6F27C
:10395000666282FB03124FEAE373C3EBA202B4F97F
:103960001410521A92B291B242F28253C2F2000380
:10397000198002F109039BB2082B04D902F1FF322E
:1039800092B2082A0CD842F28253C2F200034FF0DE
:1039900000021A804BF6F453C2F200031A6005E0ED
:1039A00008B24BF6F453C2F2000318604FF0000364
:1039B000A371E3714BF6F852C2F2000213804FF488
:1039C00096704FF47A714FF06402FDF70BFD42F2EE
:1039D000A453C2F200031A6842F2F253C2F2000387
:1039E0001B8813721BB2502B12DD4BF6BC53C2F274
:1039F00000031968C5EBC50305EB8303CB1893F8E7
:103A0000983213F0010F03D0537C43F0100353742A
:103A10004BF6F853C2F200031A88C2F100021A8072
:103A20004FF496704FF47A714FF064024FF0000338
:103A3000FDF7D8FC42F2A453C2F200031A6842F226
:103A4000F253C2F200031B88117A591811721BB28B
:103A5000502B12DD4BF6BC53C2F200031B68C5EBC2
:103A6000C50105EB81055D1995F8983213F0010F3A
:103A700003D0537C43F01003537438BDF8B50646A9
:103A80004BF65853C2F200031F6807EB40074BF692
:103A90004C53C2F200031C6894F901504BF6F853E2
:103AA000C2F200031D80FEF7A1FF2DB2C0F100009D
:103AB00000B200FB05F544F6D351C1F2620181FB6F
:103AC00005314FEAE575C5EBA11189B242F2F25317
:103AD000C2F20003198042F28253C2F200034FF097
:103AE00000021A8042F2A453C2F200031A68B2F92B
:103AF000003098B2E0B1B2F90E209B1A94F902009E
:103B00004BF6F852C2F20002108042F28252C2F228
:103B1000000200B21BB203FB00F348F21F50C5F2D3
:103B2000EB1080FB03504FEAE373C3EB6013138089
:103B300094F9000042F28252C2F20002B2F900305F
:103B400009B2C3185B18012BB8BF0123C7F80230B4
:103B5000CEB94BF64C53C2F200031B6893F9001028
:103B6000C1F16401B2F90020891A42F2F253C2F2A3
:103B70000003B3F900208B1AC7F80230002BDCBF1A
:103B80000123C7F80230F8BD30B44BF60063C2F22F
:103B900000031B681B7813F0010F08D042F2A453F6
:103BA000C2F200031B685A7C42F002025A744BF6C0
:103BB0005853C2F200031A6842F2F453C2F20003EF
:103BC00092F90F1040F22D1404FB010103EB4103A5
:103BD00093F948124BF6F853C2F20003198042F2EF
:103BE000A453C2F200031B68B3F90E50B3F90240AC
:103BF000A5421ADA5C7C14F0020F16D192F90E205D
:103C00009AB109B2632910DC02280BD142F2AC52FE
:103C1000C2F200021268B2F93E10B2F964208A1AA8
:103C2000C72A02DC44F020045C744BF65853C2F2FD
:103C300000031B6893F90E20002A77D14BF6BC5283
:103C4000C2F200021268B2F94812002940F3B280B1
:103C5000032800F2AF8042F2F451C2F2000101F5F4
:103C6000B840B1F93D40B0F93D108C4218DA42F24B
:103C7000AC51C2F200010968B1F9684042F2F45156
:103C8000C2F2000148F645500818B0F90000201AA9
:103C900001F5B84101F13F01B1F90010884227DC7C
:103CA00042F2AC51C2F200010968B1F90200B1F967
:103CB0006410411A00297DDA4BF6E871C2F2000166
:103CC0000968B1F91C1048F21F50C5F2EB1080FBD7
:103CD00001404FEAE174C4EB60104FF0640404FB50
:103CE000101109B2592903DD92F9AB15002961DDE4
:103CF00042F2A451C2F200010968487C40F0080079
:103D0000487493F91610012907D1B2F9542222B947
:103D1000B3F9042002F164029A804BF65853C2F2C0
:103D200000031B6893F90E30002B43D042F2A453DA
:103D3000C2F200031B68B3F90E10B3F906209142DA
:103D40000EDD5A7C12F0020F0AD14BF6F851C2F286
:103D50000001B1F900100029C4BF42F040025A74BA
:103D600042F2A453C2F200031B685A7C12F0440FC3
:103D700020D14BF65851C2F20001096891F9171091
:103D8000C1B94BF6BC51C2F200010968B1F9481241
:103D900000290FDA4BF6F851C2F20001B1F9001018
:103DA00041B91A49B1F90010B1F5FA7FC4BF42F028
:103DB00008025A7442F2A453C2F200031B685A7CF0
:103DC00012F0400F0BD04BF6BC51C2F20001096853
:103DD000B1F948120029BCBF62F07F025A7442F266
:103DE000A453C2F200031B685A7C12F0200F0BD0C0
:103DF0004BF6BC51C2F200010968B1F94812002922
:103E0000C4BF62F07F025A7430BC704739B30020DF
:103E100010B442F2D153C2F200034FF000021A7004
:103E200042F2A453C2F200031B685A7C12F0280F1E
:103E300008D14BF65852C2F2000212684FF000044B
:103E4000147154715B7C13F0480F08D14BF6585332
:103E5000C2F200031B684FF000029A70DA7042F25F
:103E6000A453C2F200031B685B7C13F0880F6FD071
:103E700013F0800F13D04BF65853C2F200031B68A7
:103E800093F91630012B0AD14BF6BC53C2F2000352
:103E90001B6893F8DA2502F1010283F8DA254BF664
:103EA0005853C2F200031A684BF6BC53C2F2000327
:103EB0001B6893F9DB3502EB4303B3F902300A6860
:103EC0009A4207DA0B604BF6BC53C2F200031B6840
:103ED00083F847054BF65853C2F200031A684BF6B5
:103EE000BC53C2F200031B6893F9DB3502EB4303BA
:103EF000B3F902304A689A4209DA42F2A452C2F295
:103F000000021268527C12F0080F08BF4B604BF69B
:103F10005853C2F200031A684BF6BC53C2F20003B6
:103F20001B6893F9DB3502EB4303B3F90230886871
:103F300098420DDA92F91620012A09D142F2A452D0
:103F4000C2F200021268527C12F0080F08BF8B60A8
:103F500010BC70474BF6BC53C2F200031B68B3F9A8
:103F600052222AB342F2A452C2F200021268127C18
:103F700012F0400F1FD04FF0000283F8AA25B3F9CA
:103F80004802B3F9523290FBF3F04FF0320303FBD7
:103F900000F04BF64C53C2F200031B6893F9043057
:103FA00090FBF3F042F26453C2F2000318607047D2
:103FB0004FF0000070474FF0000070474BF6BC53C5
:103FC000C2F200031968B1F9542293B203B342F26A
:103FD000A453C2F200031B6893F91030002B1ADAC5
:103FE000B1F9480212B290FBF2F24FF0320000FB3E
:103FF00002F04BF64C53C2F200031B6893F90430F5
:1040000090FBF3F042F26453C2F200031860704771
:104010004FF0000070474FF0000070474BF6BC5364
:10402000C2F200031B684FF0000283F8982083F867
:10403000992042F2AC52C2F200021268D3F89A30D0
:10404000A2F88031704700BF4BF64C53C2F2000318
:104050001B6893F9043000FB03F048F21F53C5F2CC
:10406000EB1383FB00234FEAE070C0EB2310704793
:10407000F8B54FF000030B6042F2A453C2F2000304
:104080001D686B7C13F0040F07D04BF65853C2F237
:1040900000031B684FF001029A734BF65853C2F2AB
:1040A00000031C6894F90E3023B923726372AB735A
:1040B000EB73F8BD94F91230002B40F097804BF66B
:1040C000BC53C2F200031B68B3F94802B4F90610EE
:1040D000FCF74AFD00283BD16B7C13F0100F37D062
:1040E000B4F90870B4F91430284620F80E3FB5F939
:1040F0000610FDF70DF942F2A454C2F20004236841
:1041000003F10E00B3F90210FDF708F92368B3F9C3
:104110000E6006EB86064FEA46064BF65853C2F28F
:1041200000031C684FF00003A371E3714BF6BC530E
:10413000C2F200031D68B81BFFF786FFD5F84232B4
:104140006FF0630202FB0030C5F842022681F8BD21
:10415000B4F908303BB9B4F9003019B241F28732F2
:104160009142D8BF23814BF65853C2F200031B681B
:10417000D3F80A20B3F90800801880B2188142F2FF
:10418000A452C2F20002126800B246F26761C6F29F
:10419000666181FB00414FEAE070C0EBA10189B28A
:1041A000D181B2F9060009B2814204DC00EB800043
:1041B0004FEA40001881B2F90210B2F90E008842AD
:1041C00004DB01EB81014FEA41011981B3F90810C9
:1041D00046F26760C6F2666080FB01404FEAE1711B
:1041E000C1EB9001D181B3F908201A80F8BD00BF5E
:1041F0002DE9F8434BF6D453C2F200034FF000060A
:104200001E7030464BF65857C2F2000741F287390C
:1042100042F2AC55C2F200051C46FCF789FF3B6830
:10422000B3F9080082B242B100B2FFF70DFF2B686C
:10423000B3F96430C01A361814E0B3F9000003B2C1
:104240004B450FDC2B68B3F9648002B20FFA88F398
:104250009A4207DD1046FFF7F7FE0FFA88F8C8EB21
:1042600000003618207800F10100C0B22070032849
:10427000D3D93046BDE8F8832DE9F04F85B04FF033
:1042800000054BF6BC58C2F200082E4642F2AC576D
:10429000C2F200074BF6D454C2F200042846FCF7E1
:1042A00073FCD8F8003083F8DB65B3F94822002AA4
:1042B000C4BF012283F8DB253B68B3F964308BB1BE
:1042C00026703046FCF734FF0BF038FB2078FFF700
:1042D000E9F9207800F10100C0B220700528F1D979
:1042E000FFF71EF805F10105EDB2082DD6D14FF00C
:1042F00000084BF6BC56C2F2000642F2F45AC2F273
:10430000000A4BF6D454C2F200045FFA88F0FCF7BE
:104310003BFC4FF0000503950295019533684FF083
:10432000FF0283F847250BF009FB336883F8DA5561
:1043300040F25A2303FB08A3B3F9AD30002B00F081
:104340000681284625704BF65855C2F2000542F208
:10435000A457C2F20007FCF7EBFE2078FFF7E6FA5D
:104360002B684FF000029A740BF0E8FA3B681A7C55
:1043700012F0010F42D1B3F90E2062B12A684FF05A
:10438000010191739174B3F90E3003EB830303FAC7
:1043900001F3138132E02A68B2F9082046F267611E
:1043A000C6F2666181FB02014FEAE272C2EB910242
:1043B000DA810BF0C3FA4FF00000FFF75FFB4FF01C
:1043C0000100FFF75BFB0BF0B9FA2078FFF7DCFB8D
:1043D000207801A9FFF71CFD33682A6893F9DB15E3
:1043E00002EB4102B2F902103A685181BDF808208F
:1043F000A3F84825BDF80C20A3F84A25207800F141
:104400000100C0B220700528A5D93368B3F9E425AE
:1044100042F2AC57C2F200073B68A3F87221FEF7E4
:104420001BFCFEF7BDFDFEF789FCD6F800903B684B
:10443000B3F9C250FEF748FF2D1AC9F89A50FEF79B
:10444000D5FA3368D3F89A301BB201B21846FEF79A
:104450007FFE3568FEF752FFA5F856023368D3F8A1
:104460009A0000B2FEF7DEFE3368D3F89A2039686E
:10447000B1F9C21001FB02F2002A00F394824FF05E
:10448000000583F8AB554FF00400FEF735FD4FF003
:104490000700FEF731FD4FF00600FEF72DFDFFF798
:1044A000BDFD336883F8525283F8535283F8545257
:1044B00083F85552257090E2FCF73AFE3B681A7C6F
:1044C00012F0010F3CD13168B1F948051FFA80FCA8
:1044D000D5F800E091F9DB950EEB490EBEF902E04C
:1044E00000B286450BDBBCF1000F08D042F0400261
:1044F0001A74B1F9523203F10103A1F8523229685A
:104500003368B3F94A251FFA82FE93F9DB0501EB04
:104510004000B0F9020012B2904211DBBEF1000F70
:104520000ED091F91620012A0AD13A68117C61F067
:104530007F011174B3F9542202F10102A3F854224D
:10454000207800F10100C0B220700528B4D908F12C
:104550000108B8F1080F7FF4D8AE42F2F453C2F26A
:10456000000303F50C42B3F9413082F86A314FF091
:10457000000442F2AC55C2F200054BF6BC58C2F240
:10458000000842F2F459C2F200092046FCF7FCFA96
:104590002B68B3F96420002A00F0B880D8F8002016
:1045A00092F8471511F0800F40F0B08049B201EB4E
:1045B000410003EBC00090F8F30010F0080F00F08A
:1045C000A58001EB410103EBC10393F8F23013F036
:1045D000080F40F09B804BF6B951C2F200014FF03A
:1045E00000030B7082F8523282F8533282F8543250
:1045F00082F85532B2F94832002B3ADA4FF0000710
:104600003E460BF09BF9D8F8002092F9473503EBB2
:10461000430102EBC10191F9131041FA06F111F0C7
:10462000010F1ED003EB430340F25A2101FB06F1B8
:1046300001EBC3034B4493F83C3113F0080F10D146
:1046400007EB090303F5C44393F9EF3013B192F973
:10465000DA3533B14BF6B953C2F200034FF0010221
:104660001A7006F1010607F5C06707F10607082E64
:10467000C7D14BF6B953C2F200031B78002B45D1CA
:10468000D8F8001040F2066E4FF0140740F25A2698
:1046900091F9472502EB420001EBC00090F91300AD
:1046A00040FA03F010F0010F2CD04FEA420A0AEB57
:1046B00002000EFB03FC0CEBC000484400F5BA40BE
:1046C000524401EBC202927BC2F1010280F8232026
:1046D00091F9472502EB42020CEBC2024A4402F573
:1046E000BA4282F82C7091F9472502EB420206FB90
:1046F00003F000EBC2024A4492F83B0140F008008C
:1047000082F83B0103F10103082BC1D104F101043C
:10471000E4B2082C7FF439AF0BF010F94BF6D45308
:10472000C2F200034FF000021A701E464BF6BC594D
:10473000C2F20009C2E00BF001F92046FCF724FAAE
:104740003078FCF7F5FCD9F800304FF0000283F820
:10475000CC2583F8CD2583F8CE2583F8CF253A687C
:10476000127C12F0010F1AD14BF65852C2F200021D
:104770001268917D83F8E71592F90F2042F2F45305
:10478000C2F2000340F2066808FB023808F5C4488C
:10479000D8F8E150FFF7DEFB2D18C8F8E15004F11E
:1047A0000104E4B2082CC6D14FF0000442F2A45533
:1047B000C2F200054BF658582046FCF7E5F9307870
:1047C000FCF7B6FC2B681B7C13F0010F6AD1434643
:1047D000C2F200031B6893F91620012A62D093F9F4
:1047E0000F2042F2F453C2F2000340F2066101FBD3
:1047F000023303F5C443D3F8E11093F8FC204BF6E1
:10480000A953C2F200031A7042F26453C2F20003C9
:1048100091FBF2F21A600BF091F8D9F80070B7F939
:1048200048A2D34697F9DA3553B142F26453C2F243
:1048300000031868FFF708FCC0EB0A0AA7F848A2B3
:10484000B7F948125846FCF78FF928B94FF0000322
:1048500087F8483287F849324346C2F200031A68A3
:1048600042F26453C2F200031B68C2F80A30307887
:104870004BF6F851C2F20001FFF7FAFB0BF05EF8BD
:1048800042F2AC53C2F200031B682A68B2F90E2050
:10489000B3F9EA0111B2884204DA3178052998BFE8
:1048A000A3F8EA2104F10104E4B2082C84D133789E
:1048B00003F10103DBB23370052B06D84FF000047F
:1048C00042F2A457C2F2000735E70BF037F84FF079
:1048D00000084BF6D454C2F20004C14642F2A4557B
:1048E000C2F200054BF6BC5AC2F2000A4046FCF781
:1048F0004BF984F8009048464BF65857C2F200072F
:10490000FCF716FC0BF01AF82B681B7C13F0010F58
:1049100021D13E6896F91630012B1CD1FFF74EFBD2
:10492000C6F80A0020784BF6F851C2F20001FFF7F2
:104930009FFB42F2AC53C2F200031B682A68B2F933
:104940000E20B3F9EA0111B2884204DA2178052970
:1049500098BFA3F8EA21207800F10100C0B22070CE
:104960000528CDD9DAF8003093F9DA2552B993F851
:10497000AA2502F10102D2B283F8AA2552B2142A62
:1049800003DC08E083F8AA9505E0DAF800304FF080
:10499000140283F8AA2508F101085FFA88F8B8F133
:1049A000080FA3D124E04FF00400FEF7A5FA4FF062
:1049B0000700FEF7A1FA4FF00600FEF79DFAFFF799
:1049C0002DFB32684FF0000382F8523282F85332E6
:1049D00082F8543282F8553223704FF0000042F2D0
:1049E000A457C2F200074BF65855C2F2000563E522
:1049F00005B0BDE8F08F00BF70B54FF000044BF676
:104A0000BC55C2F2000542F2AC56C2F20006204686
:104A1000FCF7BAF82B68B3F9643523B13368B3F9FE
:104A2000E021A3F894204FF00000FDF769FD4FF05E
:104A30000100FDF765FD4FF00200FDF761FD04F197
:104A40000104E4B2082CE2D170BD00BF38B51546B0
:104A50001C46002B53D0A0F10203DBB2122B07D966
:104A600042F2F253C2F200034FF000021A8022E039
:104A700042F2AC53C2F200031B6800F1FF3000EBBE
:104A800040001818B0F90200B3F90230C01A80B221
:104A900042F28253C2F2000318801B4B93F8F830A5
:104AA0005AB2C3F100035BB2FCF7C6FC42F2F25308
:104AB000C2F200031880641B42F2F253C2F20003F8
:104AC0001A88A418A4B21C8023B2642B07DD42F21A
:104AD000F253C2F200034FF064021A8009E014F4AA
:104AE000004F06D042F2F253C2F200034FF0000230
:104AF0001A8042F2F253C2F20003188801E04FF02C
:104B0000000000B238BD00BFF481002010B514468B
:104B100042F2AC53C2F200031B68B3F98021002AB1
:104B200047D0B3F92F30181A46F26763C6F26663AE
:104B300083FB00234FEAE070C0EBA30080B242F297
:104B40008253C2F20003188080B24FF064024FF02B
:104B50000003FCF771FC80B242F2F253C2F2000390
:104B6000188000B2A04204DA42F2F253C2F200030B
:104B70001C8042F2F253C2F200031B881AB2642A6C
:104B800007DD42F2F253C2F200034FF064021A80D2
:104B900009E013F4004F06D042F2F253C2F20003D0
:104BA0004FF000021A8042F2F253C2F2000318885A
:104BB00001E04FF0000000B210BD00BF08B542F2A6
:104BC000AC53C2F200031A68B2F9773099B2E9B176
:104BD000B2F90200C31A98B242F28252C2F2000243
:104BE00010804BF6BC52C2F200021368B3F92A22BD
:104BF00052B24FF012014FF00003FCF71DFC80B2DF
:104C000042F2F253C2F20003188001E04FF00000BC
:104C100000B208BD2DE9F8434FF0000542F2AC5454
:104C2000C2F200044BF6AC59C2F20009DFF8F4807E
:104C30002846FBF7A9FF266896F8143213F0010FF7
:104C400003D1FEF795F986F81502D9F800703B7E7E
:104C500013F0010F02D1FEF793F97876BB7E13F0C3
:104C6000010F02D1FEF78CF9F87696F80A3213F0AC
:104C7000010F0DD196F9152202EBD272C2F34F0249
:104C80004FF4FA604FF00601FFF740FF86F80B0281
:104C9000266896F80E3213F0010F0CD198F8F50043
:104CA00098F8F12096F90B329BB24FF00801FFF70C
:104CB000CDFE86F80F02266896F8103213F0010F29
:104CC0000CD198F8F60098F8F22096F90B329BB2C6
:104CD0004FF00901FFF7BAFE86F81102266896F830
:104CE000123213F0010F0CD198F8F70098F8F32066
:104CF00096F90B329BB24FF00A01FFF7A7FE86F838
:104D00001302266896F8223213F0010F03D1FFF741
:104D100055FF86F8230205F10105EDB2082D87D174
:104D2000BDE8F883F48100202DE9F0414BF6D4531F
:104D3000C2F200034FF0000018704BF60065C2F29B
:104D400000054BF65856C2F200064FF014074FF01C
:104D500028081C46FCF7ECF92B685B7803F1FF335D
:104D6000DBB2622B08D83368DF75B3F90820B2F5DF
:104D70007A6FC8BF83F817803368DA7D51B2002993
:104D8000CCBF02F1FF320022DA75207800F1010079
:104D9000C0B220700528DDD9BDE8F081F8B54BF62A
:104DA000E873C2F200031B685B8D002B00F0F380F8
:104DB00042F2AC53C2F200031E684BF6BC53C2F27F
:104DC00000031F68B7F94C35A6F89A30724BDC7DAA
:104DD000CCB14FF000031A4642F2F455C2F200057E
:104DE000824207D0591901F5C44191F97810002980
:104DF00040F0D18002F10102D2B203F5C06303F1A9
:104E00000603A242ECD1B6F97530002B00F0C38046
:104E1000B7F96035B3F5B46FBCBF0133A7F860359F
:104E200042F28253C2F200034FF000021A80B6F938
:104E300014309FB219B2B6F96E2095B212B28C1A24
:104E40005648B0F90000844202DCB1F5165F02DD7D
:104E5000002D40F0A080B6F96450B6F902603446E7
:104E6000C6EB050C4E48B0F90000844500F3938072
:104E70004C48B0F90000731B834209DA521A4A4BBE
:104E8000B3F900309A42C0F28680002F00F0838090
:104E90004BF6F857C2F20007751B3D80434CB4F93E
:104EA000B110254635F9AF2FB4F9B330D21A4FF00F
:104EB0000003FCF797FA42F28253C2F20003B5F9FD
:104EC000001042F2F255C2F200052A888A1A1A80AE
:104ED00042F2AC56C2F200063368B3F96E20B3F961
:104EE0001430D31A3B80B4F9B700B4F9BB1027468D
:104EF00037F9B92FB4F9BD30D21A4FF00003FCF7DF
:104F000071FAB7F900202B88D21A92B22A8033683E
:104F1000B3F9141081B1B3F96E306BB142F2825320
:104F2000C2F20003B3F9001013B2994204DD42F259
:104F30008253C2F200031A804BF6BC53C2F2000344
:104F40001B6842F28252C2F20002B3F96015B2F954
:104F5000002091421FDB42F2D852C2F200021278C6
:104F600012F0020F17D14FF0010283F8632542F2CD
:104F7000AC52C2F200021268B2F97510B3F94C25B6
:104F80008A18A3F84C254FF0000283F8602583F8B7
:104F9000612583F86225F8BDF45F0020B38200200C
:104FA000A9820020A1820020AB820020F481002091
:104FB00010B44BF6AC53C2F200031B6893F84220C6
:104FC00012F0010F40F09D804FF0000283F8432063
:104FD00093F8442012F0010F40F093804FF000024C
:104FE00083F845204BF6E872C2F200021268528D37
:104FF000042A94BFD0B204204BF6BC52C2F2000285
:10500000116891F9632502F1FF32032A79D8DFE8AC
:1050100002F040022A5B91F962454FF00302C8F2A8
:1050200000022240002A05DA02F1FF3262F0030298
:1050300002F1010252B24FF0010404FA02F292B2FC
:1050400042F28254C2F20004228083F84520B1F972
:10505000D23543B942F2AC53C2F200031B68B3F934
:105060007530A1F8D2354BF6BC53C2F200031B6871
:10507000B3F9D2256AB94FF0060283F8D2254FF072
:10508000000283F8D32593F8622502F1010283F828
:1050900062254BF6AC53C2F200031B684FF00102CD
:1050A00083F843204BF6BC53C2F200031B68B3F9EC
:1050B000D2158AB26AB94FF0050283F8D2254FF0B3
:1050C000000283F8D3251CE04FF0000381F863351C
:1050D00017E001F1FF3189B2A3F8D21589B993F82D
:1050E000632551B2032908D193F96215814204DA8C
:1050F0004FF0020283F8632503E002F1010283F816
:10510000632510BC704700BF10B422B101B110B9C3
:1051100000FB03F01EE0091A89B242F2F252C2F219
:105120000002118042F28252C2F2000214884BF651
:10513000F852C2F20002128812B900FB03F009E033
:1051400009B224B201FB04F112B291FBF2F2801811
:1051500003FB00F010BC70472DE9F04F89B00790B9
:105160000F4642F2F453C2F2000340F25A2101FB0F
:10517000023202F14902039242F2AC52C2F2000240
:10518000039E16604FF0000886F8628086F8638000
:10519000B3F843300693079EF3181BB246F2B702EA
:1051A000CBF20B6282FB031A9A444FEAE371C1EB24
:1051B000AA2A4FF4B46C0CFB1A3A1FFA8AFA42F28C
:1051C000F253C2F20003A3F800A041464346CDF8D3
:1051D0000880CDF804C04FF0FF09CB4642F2F450EE
:1051E000C2F200004FF0320507F101070FFA8AFA08
:1051F000DCB205FB030202F58A4202F1E802928862
:10520000D2B10E1806F58A4696F8EB60BE4213D16D
:105210006245BCBF944604944245C4BF9046059481
:10522000524504DB019EB242C0F24D8104E0029E71
:10523000B242C4BF0292A14603F1010301F132015F
:10524000282BD5D1BCF5B46F00F040814FFA8BF21A
:10525000049E3BEA220B28BFB3464FFA89F3059E12
:1052600039EA230928BFB1464FFA89F24FF03201DB
:1052700001FB02F242F2F453C2F20003D41804F527
:105280008A4404F1EB044FFA8BFB01FB0BFB03EBAD
:105290000B0505F58A4505F1EB059A1802F58A42DA
:1052A000B2F8EC0006990E1AB6B2B1B242F28252CE
:1052B000C2F2000211805B4403F58A4303F1E80364
:1052C0009B88181A80B282B24BF6F853C2F20003E0
:1052D0001A8012F4004F06D04BF6F853C2F20003C6
:1052E00000F5B460188011F4004F06D042F28253EA
:1052F000C2F2000306F5B4661E80079B43B3B4F800
:105300000500B5F805104FF001021346FFF7FCFE4B
:10531000039EA6F86800B4F8070018B9B4F80500B1
:1053200000F1640042F2AC56C2F200063768B5F8EC
:1053300007104FF001021346FFF7E6FEA7F86A00D8
:105340003368A27E83F87D20E27E83F87E20BDE074
:10535000B4F80500B5F805104FF001021346FFF749
:10536000D3FE039EA6F86200B4F8070018B9B4F89B
:10537000050000F1640042F2AC56C2F20006376844
:10538000B5F807104FF001021346FFF7BDFEA7F86E
:1053900066003768E08BE98B4FF001021346FFF798
:1053A000B3FEA7F877003768A38AA7F87530607F47
:1053B000697F4FF001024FF06403FFF7A5FEA7F8E5
:1053C0006C003768B4F80900B5F809104FF0010215
:1053D0001346FFF799FEA7F870003768207C297CF8
:1053E0004FF001024FF00A03FFF78EFEA7F8E60028
:1053F0003768607C697C4FF001024FF00A03FFF7C9
:1054000083FEA7F8FE003768207F297F4FF0010256
:105410004FF00A03FFF778FEA7F816013768E07B24
:10542000E97B4FF001024FF00A03FFF76DFEA7F88A
:1054300046013768E07AE97A4FF001024FF00A033B
:10544000FFF762FEA7F8E2003768207B297B4FF068
:1054500001024FF00A03FFF757FEA7F8FA0037687A
:10546000A07CA97C4FF000024FF00103FFF74CFE37
:10547000A7F876013768E37C87F87430A37D87F856
:105480007A30E37D87F87B30237E87F87C30637E3B
:1054900087F879305BB2A7F89031607B697B4FF079
:1054A00001024FF00A03FFF72FFEA7F8200136682C
:1054B000A07BA97B4FF001024FF00A03FFF724FE07
:1054C000A6F8380102E00192A346B5E609B0BDE8AE
:1054D000F08F00BFF8B54BF6F852C2F2000242F26C
:1054E000F453C2F20003D96B41F30F21118042F251
:1054F000AC54C2F200042268B2F96210A2F864103F
:1055000003F5B643B3F9FB00B3F9FD10B3F9FF207F
:105510004FF00403FBF766FF80B242F28253C2F2FF
:1055200000031880236893F86120104383F861001A
:105530000AF004FA236842F2F252C2F20002128820
:10554000B3F964105118A3F86410B3F96810521835
:10555000A3F86820B3F9662012B342F2F453C2F202
:10556000000303F5B642B2F9FB00B2F9FD1003F5F2
:10557000B843B3F901204FF00003FBF733FF236872
:1055800042F2F252C2F200021288B3F966105118C8
:10559000A3F86610B3F96A105218A3F86A200BE05A
:1055A000B3F9642002F16402A3F86620B3F968201D
:1055B00002F16402A3F86A2042F2AC53C2F2000383
:1055C0001B68B3F96C2091B269B3A3F86E2042F264
:1055D000F453C2F2000303F5B642B2F9FB00B2F98C
:1055E000FD1003F5B843B3F905204FF00803FBF7AE
:1055F000F9FE80B242F28253C2F20003188042F2F6
:10560000AC53C2F200031B6893F86120104383F887
:105610006100B3F96E1042F2F252C2F20002128837
:105620008A1AA3F86E2042F2AC53C2F200031B6840
:10563000B3F9702091B269B3A3F8722042F2F45327
:10564000C2F2000303F5B642B2F9FB00B2F9FD1055
:1056500003F5B843B3F90B204FF01003FBF7C2FE7C
:1056600080B242F28253C2F20003188042F2AC537D
:10567000C2F200031B6893F86120104383F86100B5
:1056800042F2F252C2F20002B3F9721012888A1882
:10569000A3F8722042F2AC53C2F200031B68B3F9C4
:1056A000E6302BB342F2F453C2F2000303F5B642E4
:1056B000B2F9FB00B2F9FD1003F5B843B3F91120BC
:1056C0004FF00003FBF78EFE42F28253C2F200035A
:1056D000188042F2AC53C2F200031A68B2F9E61025
:1056E00042F2F253C2F200031B88CB1AA2F8E83050
:1056F00042F2AC53C2F200031B68B3F9FE20A3F8D8
:105700000021B3F916312BB342F2F453C2F2000375
:1057100003F5B642B2F9FB00B2F9FD1003F5B84348
:10572000B3F915204FF00003FBF75CFE42F2825301
:10573000C2F20003188042F2AC53C2F200031A68AE
:10574000B2F9161142F2F253C2F200031B88CB1ACF
:10575000A2F8183142F2AC53C2F200031B68B3F94D
:1057600046312BB342F2F453C2F2000303F5B642C2
:10577000B2F9FB00B2F9FD1003F5B843B3F91320F9
:105780004FF00003FBF72EFE42F28253C2F20003F9
:10579000188042F2AC53C2F200031A6842F2F2538C
:1057A000C2F20003B2F946111B88CB18A2F84831A7
:1057B00042F2AC53C2F200031B68B3F9762191B2F6
:1057C00069B3A3F8782142F2F453C2F2000303F55F
:1057D000B642B2F9FB00B2F9FD1003F5B843B3F9D4
:1057E00017204FF00003FBF7FDFD80B242F2825319
:1057F000C2F20003188042F2AC53C2F200031B68ED
:1058000093F88221104383F8820142F2F252C2F2ED
:105810000002B3F9781112888A18A3F87821FDF7ED
:10582000E5F84BF6F855C2F2000528801D4CB4F996
:105830001900B4F91B10B4F925204FF00003FBF751
:10584000D1FD42F2AC56C2F20006336842F2F25782
:10585000C2F200073A88B3F96A10891AA3F86A10ED
:10586000B3F966108A1AA3F866202B88C3F10003E7
:105870002B80B4F91D00B4F91F10B4F90F204FF0BC
:105880000003FBF7AFFD33683A88B3F96A1051188B
:10589000A3F86A10B3F966105218A3F866200AF04C
:1058A0004DF8F8BDF481002070B54BF6D453C2F228
:1058B00000034FF0000018704BF65855C2F2000577
:1058C0004FF014061C46FBF733FC2B68B3F9142089
:1058D00002EB82024FEA42021A81DE754FF00102AA
:1058E0009A7320788018C0B220700528EBD970BD5B
:1058F0002DE9F04142F2AC53C2F200031B68B3F948
:105900006830002B00F0FD834BF63C73C2F20003BD
:105910001B560BB1FFF7C8FF4BF6E053C2F2000372
:105920001B684FF00002DA801A80E24BB3F90030B6
:105930009AB26AB14BF6E052C2F20002116842F22A
:10594000AC52C2F200021268B2F96420D318CB80C4
:10595000D94BB3F900309AB26AB14BF6E052C2F2B9
:105960000002116842F2AC52C2F200021268B2F9AF
:105970006420D31A0B8042F2AC53C2F200031B68BE
:10598000B3F96820B3F90210521AA3F8B220A3F8B1
:10599000801042F28252C2F20002B3F96400411A4E
:1059A00011804BF6F852C2F2000242F2F451C2F2F8
:1059B0000001C96B41F30F21118093F8222012F0EE
:1059C000010F0AD14BF6F852C2F2000293F82010F0
:1059D00093F8213041EA0323138042F2F457C2F2D4
:1059E000000707F5B844B4F94100B4F94310B4F91D
:1059F00045204FF00003FBF7F5FC42F2AC56C2F233
:105A00000006336842F2F255C2F200052A88A3F874
:105A1000B4204BF6F858C2F20008B3F96820B3F985
:105A20003830D31AA8F80030B4F93500B4F937107B
:105A3000B4F939204FF00003FBF7D4FC33682A880F
:105A4000A3F8B62009F07AFF97F83F3097F8402086
:105A500043EA0223A8F80030B4F94D00B4F94F101E
:105A6000B4F951204FF00003FBF7BCFC3368B3F9E5
:105A7000682048F64553FB18B3F90030D31A2A883A
:105A80009B1AA8F80030B4F94700B4F94910B4F9EA
:105A90004B204FF00003FBF7A5FC3368B3F9B810B7
:105AA0002A888A18A3F8B820B4F959104BF6AC52DA
:105AB000C2F20002126892F9272002FB01F148F2BB
:105AC0001F52C5F2EB1282FB01024FEAE171C1EBFA
:105AD000621292B2A3F8BA20B3F9B400B3F9B610C7
